:0A0000000C943D000C9400000C94D9
:10000A0000000C9400000C9400000C9400000C9466
:10001A0000000C9400000C9400000C9400000C9456
:10002A00A9000C9400000C9400000C9400000C949D
:10003A0000000C9400000C9400000C9400000C9436
:10004A0000000C9400000C94000044616E67204884
:10005A006F610043686F74206B656F203530306BB9
:10006A0000000900600154000E0069015D000000F3
:10007A00F894EE27ECBBF1E0FBBFEBBFE5BF8DE0E8
:10008A00A2E0BB27ED938A95E9F780E094E0A0E629
:10009A00ED930197E9F7ECE6F0E0859195910097E9
:1000AA0061F0A591B59105901590BF01F0010590F9
:1000BA000D920197E1F7FB01F0CFEFE5EDBFE4E028
:1000CA00EEBFC0E6D1E00C94ED00AA93E881E7B94F
:1000DA008BE18A95F1F7369A349BFECF349AE4B1D4
:1000EA00F5B130C0AA93DF98DD98DE980E946501C9
:1000FA0029C0AA93DF98DE98DD9A0E94650122C082
:10010A00BA93AA930E94BB01AC81BD810E94590196
:10011A008F0120E030E02017310754F4F901AC8157
:10012A00BD81AE0FBF1FAC91E4DF2F5F3F4FF3CF0E
:10013A000E94C00126960895AA93E881EFB9779B99
:10014A00FECFEFB1219608950A921A92FA926A9313
:10015A007A938A939A93AA93BA93EA93FA93EFB704
:10016A00EA931A93A0917701E7DF1E2FA0E8BADF7E
:10017A00A12FBFDF113311F4A8981BC0123311F459
:10018A00A89A17C0133311F4A99813C0143311F4A1
:10019A00A99A0FC0153311F4AA980BC0163311F49B
:1001AA00AA9A07C0173311F4AB9803C0183309F49D
:1001BA00AB9A1991E991EFBFF991E991B991A99196
:1001CA009991899179916991F99019900990189565
:1001DA00E0EEEABBE0E0EBBBE0E4E7BBE0E0E8BB73
:1001EA00EFEFE4BBE0E0E5BBEFEFE1BBE0E0E2BB51
:1001FA00E3BFE2BFECBFEFBDEEBDEDBDECBDE7BDB9
:10020A00E6BDEBBDEABDE9BDE8BDE2BDE5BDE4BDC5
:10021A00E3BDE9BFE5BFE4BFEAB9E0E8E8B9E0E079
:10022A00E7B9E3E8E6B9E0E0E0BFE0ECEDB9E0E029
:10023A00EEB9EEB1EFB1E0E0E6BF7894ACE052DFA0
:10024A00A8E350DFA1E84EDFA0E6B1E059DFA2E360
:10025A00B0E00E948301A0EC45DFA9E6B1E050DFDF
:10026A00A0E033DF662777270E946D01E0917701CE
:10027A00F09178016091790170917A010E948D0163
:10028A000E946D010E9476010E949201E05D4E2E4D
:10029A000E9476010E94B701E05D7E2EA4EFB1E0D4
:1002AA000E948301DDCFFFCFBA93AA93A991B99196
:1002BA00EE27FF276D91662311F03196FBCF089543
:1002CA00E881E2BBDF9ADF98A4E1B0E00C948301F5
:1002DA00E0937701F09378016093790170937A0142
:1002EA000895A0917701B091780180917901909158
:1002FA007A01EAE0F0E060E070E00895109639F0E3
:10030A0080ED97E00197F1F7A8951197C9F708953D
:10031A0076956795F795E79508953F934F935F9381
:10032A00002411244427552730E2AA0FBB1F881F37
:10033A00991F001C111C441F551F0E1A1F0A460B39
:10034A00570B28F40E0E1F1E461F571F01C0A1602F
:10035A003A9559F7FD01BC01D001CA015F914F914D
:10036A003F910895DADFFD01BC0108953A932A937B
:10037A001A930A9308953B812A8119810881089565
:00000001FF
