:0A0000000C9470000C9400000C94A6
:10000A0000000C9400000C9400000C9400000C9466
:10001A0000000C9400000C9400000C9400000C9456
:10002A0000000C9404010C9400000C9400000C9441
:10003A0000000C9400000C9400000C9400000C9436
:10004A0000000C9400000C9400001027E8036400E0
:10005A000A000100001000011000010000004445E0
:10006A004E31300044454E31310044454E32300065
:10007A0044454E32310044454E33300044454E33F8
:10008A00310044454E34300044454E3431004E6808
:10009A0069657420646F3A00020004006600060075
:1000AA0060016800060066016E0006006C017400BB
:1000BA00060072017A0006007801800006007E01BF
:1000CA008600060084018C0006008A0192000A005C
:1000DA00900198000000F894EE27ECBBF1E0FBBF1A
:1000EA00EBBFE5BF8DE0A2E0BB27ED938A95E9F768
:1000FA0080E094E0A0E6ED930197E9F7E2EAF0E008
:10010A0085919591009761F0A591B591059015900B
:10011A00BF01F00105900D920197E1F7FB01F0CFC5
:10012A00EFE5EDBFE4E0EEBFC0E6D1E00C94970145
:10013A00AA93DA98D898D9980E94240252C0AA930E
:10014A00DA98D998D89A0E9424024BC0BA93AA93F3
:10015A000E947302AC81BD810E9418028F0120E0C7
:10016A0030E02017310754F4F901AC81BD81AE0F9C
:10017A00BF1FAC91E4DF2F5F3F4FF3CF0E9478029D
:10018A0026960895AA935D9BFECFE881ECB929C013
:10019A00BA93AA931A930A93AA81BB810E9418025E
:1001AA001E2F00E0011748F4AA81BB81EE27A00F99
:1001BA00BE1FAC91E7DF0F5FF5CF19810881249646
:1001CA0008955D9BFECFECB10895AA93E881EFB93B
:1001DA00779BFECF06C0AA93E881EFB9779BFECF43
:1001EA00EFB121960895AA93E981E093A001E881ED
:1001FA00E093A101EAE0E093A201229608950A920F
:10020A001A92FA926A937A938A939A93AA93BA93CE
:10021A00EA93FA93EFB7EA93F201E656FE4FFF9399
:10022A00EF93CFDFAF91BF91EC93F20131962F019B
:10023A00E5E0F0E0E415F50509F066C0442455242C
:10024A00E0E0E0939F010E942C02A0E6B1E00E9448
:10025A000402E03029F4C098A1E3B7DFC09A54C081
:10026A000E942C02A6E6B1E00E940402E03029F4C2
:10027A00C098A2E3AADFC09A47C00E942C02ACE64B
:10028A00B1E00E940402E03029F4C098A3E39DDFA4
:10029A00C09A3AC00E942C02A2E7B1E00E9404026E
:1002AA00E03029F4C098A4E390DFC09A2DC00E94E0
:1002BA002C02A8E7B1E00E940402E03019F4C198C8
:1002CA00A1E320C00E942C02AEE7B1E00E94040222
:1002DA00E03019F4C198A2E315C00E942C02A4E8E8
:1002EA00B1E00E940402E03019F4C198A3E30AC005
:1002FA000E942C02AAE8B1E00E940402E03021F434
:10030A00C198A4E362DFC19AE991EFBFF991E9913B
:10031A00B991A9919991899179916991F9901990D5
:10032A0009901895EFEFEABBE0E0EBBBE3EBE7BB24
:10033A00E0E0E8BBEFEFE4BBE0E0E5BBE1BBE2BB3A
:10034A00E3BFE2BFECBFEFBDEEBDEDBDECBDE7BD67
:10035A00E6BDEBBDEABDE9BDE8BDE2BDE5BDE4BD74
:10036A00E3BDE9BFE5BFE4BFEBB9E8E9EAB9E6E80E
:10037A00E0BDE0E0E0BDE3E3E9B9E0E8E8B9E0E0E8
:10038A00E0BFE6B9E0E5EDB9E0E0EEB9E6BF7894A2
:10039A00AEE0CEDEA8E3CCDEA0E9B1E0D7DEC19ABA
:1003AA00C098A0E018DF7E2EC09AA72DB0E0EAE040
:1003BA00F0E00E945202E05D6E2EA72DBB27EAE014
:1003CA00F0E00E945702E05D9E2EA9E8B1DEA62D5C
:1003DA00B6DEA92DB4DEAFEDB2DEA3E4B0DE6A92DA
:1003EA00A92D01DFA0EAB1E0D3DEC198A72DEDDE89
:1003FA00C19AA4EFB1E00E943102D1CFFFCFBA93E4
:10040A00AA93E991F991A991B9916D91719167179F
:10041A0021F46623D1F7EE270895671BE1F3E1E0A3
:10042A0008F4E2500895BA93AA93A991B991EE27D4
:10043A00FF276D91662311F03196FBCF0895E8816D
:10044A00E5BBDA9ADA98A4E1B0E00C943102EAE961
:10045A00F1E0FA93EA930895109639F080ED97E067
:10046A000197F1F7A8951197C9F70895F195E195C4
:10047A00F04008950024112490E1AA0FBB1F001C2C
:10048A00111C0E1A1F0A18F40E0E1F1E01C0A160BD
:10049A009A9599F7FD01D001089512D0EBDF0EF479
:1004AA00E5DF0895E894B7FF04C0A095B0951196CA
:1004BA006894F7FDDBDFDEDFFD010EF4D7DF089578
:1004CA00E894F7FF02C0D2DF6894B7FF06C0A09590
:1004DA00B095119600F8039400FA08953A932A9376
:1004EA001A930A9308953B812A81198108810895F4
:00000001FF
