:080000000C942A000C9400008E
:100008000C9400000C9400000C9400000C94000068
:100018000C9400000C9400000C9400000C94000058
:100028000C9449000C9400000C9400000C940000FF
:100038000C9400000C9400000C9400000C94000038
:100048000C9400000C9400000C940000F894EE2727
:10005800ECBBF1E0FBBFEBBFE5BF8DE0A2E0BB2747
:10006800ED938A95E9F780E094E0A0E6ED93019797
:10007800E9F7EFE5EDBFE4E0EEBFC0E6D1E00C94B0
:100088007F00779BFECFEFB108950A921A92FA92F9
:100098006A937A938A939A93AA93BA93EA93FA9370
:1000A800EFB7EA931A93EDDF1E2F113311F4A898D6
:1000B80013C0123311F4A89A0FC0133311F4A9987E
:1000C8000BC0143311F4A99A07C0153311F4AA9878
:1000D80003C0163309F4AA9A1991E991EFBFF9916F
:1000E800E991B991A9919991899179916991F99039
:1000F800199009901895EFEFEABBE0E0EBBBE0E45C
:10010800E7BBE0E0E8BBEFEFE4BBE0E0E5BBEFEF27
:10011800E1BBE0E0E2BBE3BFE2BFECBFEFBDEEBD99
:10012800EDBDECBDE7BDE6BDEBBDEABDE9BDE8BD93
:10013800E2BDE5BDE4BDE3BDE9BFE5BFE4BFEAB9A3
:10014800E0E8E8B9E0E0E0BFE6B9E0ECEDB9E0E00E
:10015800EEB9EEB1EFB1E0E0E6BF7894FFCFFFCFA4
:00000001FF
